{
  "contractName": "SimpliWaterToken",
  "abi": [
    {
      "constant": true,
      "inputs": [],
      "name": "mintingFinished",
      "outputs": [
        {
          "name": "",
          "type": "bool"
        }
      ],
      "payable": false,
      "stateMutability": "view",
      "type": "function"
    },
    {
      "constant": false,
      "inputs": [
        {
          "name": "_spender",
          "type": "address"
        },
        {
          "name": "_value",
          "type": "uint256"
        }
      ],
      "name": "approve",
      "outputs": [
        {
          "name": "",
          "type": "bool"
        }
      ],
      "payable": false,
      "stateMutability": "nonpayable",
      "type": "function"
    },
    {
      "constant": false,
      "inputs": [
        {
          "name": "_meterAddress",
          "type": "address"
        }
      ],
      "name": "registerMeter",
      "outputs": [],
      "payable": false,
      "stateMutability": "nonpayable",
      "type": "function"
    },
    {
      "constant": true,
      "inputs": [],
      "name": "totalSupply",
      "outputs": [
        {
          "name": "",
          "type": "uint256"
        }
      ],
      "payable": false,
      "stateMutability": "view",
      "type": "function"
    },
    {
      "constant": false,
      "inputs": [
        {
          "name": "_from",
          "type": "address"
        },
        {
          "name": "_to",
          "type": "address"
        },
        {
          "name": "_value",
          "type": "uint256"
        }
      ],
      "name": "transferFrom",
      "outputs": [
        {
          "name": "",
          "type": "bool"
        }
      ],
      "payable": false,
      "stateMutability": "nonpayable",
      "type": "function"
    },
    {
      "constant": false,
      "inputs": [
        {
          "name": "_meterAddress",
          "type": "address"
        },
        {
          "name": "_value",
          "type": "uint256"
        }
      ],
      "name": "topUpBalanceWithEther",
      "outputs": [],
      "payable": true,
      "stateMutability": "payable",
      "type": "function"
    },
    {
      "constant": true,
      "inputs": [
        {
          "name": "_meterAddress",
          "type": "address"
        }
      ],
      "name": "getTokenBalance",
      "outputs": [
        {
          "name": "",
          "type": "uint256"
        }
      ],
      "payable": false,
      "stateMutability": "view",
      "type": "function"
    },
    {
      "constant": false,
      "inputs": [
        {
          "name": "_meterAddress",
          "type": "address"
        },
        {
          "name": "_firstName",
          "type": "bytes16"
        },
        {
          "name": "_lastName",
          "type": "bytes16"
        },
        {
          "name": "_memberAddress",
          "type": "address"
        }
      ],
      "name": "addUserToMeter",
      "outputs": [],
      "payable": false,
      "stateMutability": "nonpayable",
      "type": "function"
    },
    {
      "constant": false,
      "inputs": [
        {
          "name": "_to",
          "type": "address"
        },
        {
          "name": "_amount",
          "type": "uint256"
        }
      ],
      "name": "mint",
      "outputs": [
        {
          "name": "",
          "type": "bool"
        }
      ],
      "payable": false,
      "stateMutability": "nonpayable",
      "type": "function"
    },
    {
      "constant": false,
      "inputs": [
        {
          "name": "_tokensToBurn",
          "type": "uint256"
        }
      ],
      "name": "burn",
      "outputs": [],
      "payable": false,
      "stateMutability": "nonpayable",
      "type": "function"
    },
    {
      "constant": true,
      "inputs": [
        {
          "name": "_meterAddress",
          "type": "address"
        }
      ],
      "name": "getEthBalance",
      "outputs": [
        {
          "name": "",
          "type": "uint256"
        }
      ],
      "payable": false,
      "stateMutability": "view",
      "type": "function"
    },
    {
      "constant": true,
      "inputs": [],
      "name": "getNormalChargePerLiter",
      "outputs": [
        {
          "name": "_normalCharge",
          "type": "uint256"
        }
      ],
      "payable": false,
      "stateMutability": "view",
      "type": "function"
    },
    {
      "constant": false,
      "inputs": [
        {
          "name": "_spender",
          "type": "address"
        },
        {
          "name": "_subtractedValue",
          "type": "uint256"
        }
      ],
      "name": "decreaseApproval",
      "outputs": [
        {
          "name": "",
          "type": "bool"
        }
      ],
      "payable": false,
      "stateMutability": "nonpayable",
      "type": "function"
    },
    {
      "constant": false,
      "inputs": [
        {
          "name": "_penaltyCharge",
          "type": "uint256"
        }
      ],
      "name": "setPenaltyChargePerLiter",
      "outputs": [],
      "payable": false,
      "stateMutability": "nonpayable",
      "type": "function"
    },
    {
      "constant": true,
      "inputs": [
        {
          "name": "_owner",
          "type": "address"
        }
      ],
      "name": "balanceOf",
      "outputs": [
        {
          "name": "balance",
          "type": "uint256"
        }
      ],
      "payable": false,
      "stateMutability": "view",
      "type": "function"
    },
    {
      "constant": false,
      "inputs": [],
      "name": "finishMinting",
      "outputs": [
        {
          "name": "",
          "type": "bool"
        }
      ],
      "payable": false,
      "stateMutability": "nonpayable",
      "type": "function"
    },
    {
      "constant": true,
      "inputs": [],
      "name": "getPenaltyChargePerLiter",
      "outputs": [
        {
          "name": "penaltyCharge",
          "type": "uint256"
        }
      ],
      "payable": false,
      "stateMutability": "view",
      "type": "function"
    },
    {
      "constant": true,
      "inputs": [],
      "name": "owner",
      "outputs": [
        {
          "name": "",
          "type": "address"
        }
      ],
      "payable": false,
      "stateMutability": "view",
      "type": "function"
    },
    {
      "constant": true,
      "inputs": [],
      "name": "getDailyLimit",
      "outputs": [
        {
          "name": "_dailyLimit",
          "type": "uint256"
        }
      ],
      "payable": false,
      "stateMutability": "view",
      "type": "function"
    },
    {
      "constant": false,
      "inputs": [
        {
          "name": "_to",
          "type": "address"
        },
        {
          "name": "_value",
          "type": "uint256"
        }
      ],
      "name": "transfer",
      "outputs": [
        {
          "name": "",
          "type": "bool"
        }
      ],
      "payable": false,
      "stateMutability": "nonpayable",
      "type": "function"
    },
    {
      "constant": false,
      "inputs": [
        {
          "name": "_meterAddress",
          "type": "address"
        },
        {
          "name": "_value",
          "type": "uint256"
        }
      ],
      "name": "topUpBalance",
      "outputs": [],
      "payable": false,
      "stateMutability": "nonpayable",
      "type": "function"
    },
    {
      "constant": false,
      "inputs": [
        {
          "name": "_dailyLimit",
          "type": "uint256"
        }
      ],
      "name": "setDailyLimit",
      "outputs": [],
      "payable": false,
      "stateMutability": "nonpayable",
      "type": "function"
    },
    {
      "constant": false,
      "inputs": [
        {
          "name": "_spender",
          "type": "address"
        },
        {
          "name": "_addedValue",
          "type": "uint256"
        }
      ],
      "name": "increaseApproval",
      "outputs": [
        {
          "name": "",
          "type": "bool"
        }
      ],
      "payable": false,
      "stateMutability": "nonpayable",
      "type": "function"
    },
    {
      "constant": true,
      "inputs": [
        {
          "name": "_owner",
          "type": "address"
        },
        {
          "name": "_spender",
          "type": "address"
        }
      ],
      "name": "allowance",
      "outputs": [
        {
          "name": "",
          "type": "uint256"
        }
      ],
      "payable": false,
      "stateMutability": "view",
      "type": "function"
    },
    {
      "constant": false,
      "inputs": [
        {
          "name": "_normalCharge",
          "type": "uint256"
        }
      ],
      "name": "setNormalChargePerLiter",
      "outputs": [],
      "payable": false,
      "stateMutability": "nonpayable",
      "type": "function"
    },
    {
      "constant": true,
      "inputs": [
        {
          "name": "_meterAddress",
          "type": "address"
        }
      ],
      "name": "retrieveMeterHouseMemberTotal",
      "outputs": [
        {
          "name": "meterAddress",
          "type": "address"
        },
        {
          "name": "totalHouseMembers",
          "type": "uint256"
        }
      ],
      "payable": false,
      "stateMutability": "view",
      "type": "function"
    },
    {
      "constant": false,
      "inputs": [
        {
          "name": "newOwner",
          "type": "address"
        }
      ],
      "name": "transferOwnership",
      "outputs": [],
      "payable": false,
      "stateMutability": "nonpayable",
      "type": "function"
    },
    {
      "inputs": [],
      "payable": false,
      "stateMutability": "nonpayable",
      "type": "constructor"
    },
    {
      "anonymous": false,
      "inputs": [
        {
          "indexed": false,
          "name": "_meterAddress",
          "type": "address"
        }
      ],
      "name": "MeterRegisteredEvent",
      "type": "event"
    },
    {
      "anonymous": false,
      "inputs": [
        {
          "indexed": false,
          "name": "_meterAddress",
          "type": "address"
        },
        {
          "indexed": false,
          "name": "_memberAddress",
          "type": "address"
        }
      ],
      "name": "UserAddedEvent",
      "type": "event"
    },
    {
      "anonymous": false,
      "inputs": [
        {
          "indexed": true,
          "name": "burner",
          "type": "address"
        },
        {
          "indexed": false,
          "name": "value",
          "type": "uint256"
        }
      ],
      "name": "Burn",
      "type": "event"
    },
    {
      "anonymous": false,
      "inputs": [
        {
          "indexed": true,
          "name": "to",
          "type": "address"
        },
        {
          "indexed": false,
          "name": "amount",
          "type": "uint256"
        }
      ],
      "name": "Mint",
      "type": "event"
    },
    {
      "anonymous": false,
      "inputs": [],
      "name": "MintFinished",
      "type": "event"
    },
    {
      "anonymous": false,
      "inputs": [
        {
          "indexed": true,
          "name": "previousOwner",
          "type": "address"
        },
        {
          "indexed": true,
          "name": "newOwner",
          "type": "address"
        }
      ],
      "name": "OwnershipTransferred",
      "type": "event"
    },
    {
      "anonymous": false,
      "inputs": [
        {
          "indexed": true,
          "name": "owner",
          "type": "address"
        },
        {
          "indexed": true,
          "name": "spender",
          "type": "address"
        },
        {
          "indexed": false,
          "name": "value",
          "type": "uint256"
        }
      ],
      "name": "Approval",
      "type": "event"
    },
    {
      "anonymous": false,
      "inputs": [
        {
          "indexed": true,
          "name": "from",
          "type": "address"
        },
        {
          "indexed": true,
          "name": "to",
          "type": "address"
        },
        {
          "indexed": false,
          "name": "value",
          "type": "uint256"
        }
      ],
      "name": "Transfer",
      "type": "event"
    }
  ],
  "bytecode": "0x60606040526000600360146101000a81548160ff021916908315150217905550341561002a57600080fd5b33600360006101000a81548173ffffffffffffffffffffffffffffffffffffffff021916908373ffffffffffffffffffffffffffffffffffffffff160217905550600060018190555061c350600481905550610fa06005819055506103e86006819055506126a98061009d6000396000f30060606040526004361061015f576000357c0100000000000000000000000000000000000000000000000000000000900463ffffffff16806305d2035b14610164578063095ea7b3146101915780630ff98543146101eb57806318160ddd1461022457806323b872dd1461024d5780632cd64a06146102c65780633aecd0e3146102fd5780633ddf1f011461034a57806340c10f19146103da57806342966c68146104345780634d2301cc146104575780634d9f8721146104a457806366188463146104cd5780636d16eff31461052757806370a082311461054a5780637d64bcb41461059757806385d38979146105c45780638da5cb5b146105ed578063a6895b5a14610642578063a9059cbb1461066b578063b0da688c146106c5578063b20d30a914610707578063d73dd6231461072a578063dd62ed3e14610784578063ef90c198146107f0578063ef91bcd914610813578063f2fde38b14610893575b600080fd5b341561016f57600080fd5b6101776108cc565b604051808215151515815260200191505060405180910390f35b341561019c57600080fd5b6101d1600480803573ffffffffffffffffffffffffffffffffffffffff169060200190919080359060200190919050506108df565b604051808215151515815260200191505060405180910390f35b34156101f657600080fd5b610222600480803573ffffffffffffffffffffffffffffffffffffffff169060200190919050506109d1565b005b341561022f57600080fd5b610237610bfb565b6040518082815260200191505060405180910390f35b341561025857600080fd5b6102ac600480803573ffffffffffffffffffffffffffffffffffffffff1690602001909190803573ffffffffffffffffffffffffffffffffffffffff16906020019091908035906020019091905050610c05565b604051808215151515815260200191505060405180910390f35b6102fb600480803573ffffffffffffffffffffffffffffffffffffffff16906020019091908035906020019091905050610fbf565b005b341561030857600080fd5b610334600480803573ffffffffffffffffffffffffffffffffffffffff16906020019091905050610fcd565b6040518082815260200191505060405180910390f35b341561035557600080fd5b6103d8600480803573ffffffffffffffffffffffffffffffffffffffff169060200190919080356fffffffffffffffffffffffffffffffff19169060200190919080356fffffffffffffffffffffffffffffffff191690602001909190803573ffffffffffffffffffffffffffffffffffffffff16906020019091905050611015565b005b34156103e557600080fd5b61041a600480803573ffffffffffffffffffffffffffffffffffffffff1690602001909190803590602001909190505061145c565b604051808215151515815260200191505060405180910390f35b341561043f57600080fd5b61045560048080359060200190919050506115e6565b005b341561046257600080fd5b61048e600480803573ffffffffffffffffffffffffffffffffffffffff169060200190919050506116dd565b6040518082815260200191505060405180910390f35b34156104af57600080fd5b6104b76116fe565b6040518082815260200191505060405180910390f35b34156104d857600080fd5b61050d600480803573ffffffffffffffffffffffffffffffffffffffff16906020019091908035906020019091905050611708565b604051808215151515815260200191505060405180910390f35b341561053257600080fd5b6105486004808035906020019091905050611999565b005b341561055557600080fd5b610581600480803573ffffffffffffffffffffffffffffffffffffffff169060200190919050506119ff565b6040518082815260200191505060405180910390f35b34156105a257600080fd5b6105aa611a47565b604051808215151515815260200191505060405180910390f35b34156105cf57600080fd5b6105d7611ab3565b6040518082815260200191505060405180910390f35b34156105f857600080fd5b610600611abd565b604051808273ffffffffffffffffffffffffffffffffffffffff1673ffffffffffffffffffffffffffffffffffffffff16815260200191505060405180910390f35b341561064d57600080fd5b610655611ae3565b6040518082815260200191505060405180910390f35b341561067657600080fd5b6106ab600480803573ffffffffffffffffffffffffffffffffffffffff16906020019091908035906020019091905050611aed565b604051808215151515815260200191505060405180910390f35b34156106d057600080fd5b610705600480803573ffffffffffffffffffffffffffffffffffffffff16906020019091908035906020019091905050611d0c565b005b341561071257600080fd5b6107286004808035906020019091905050611d76565b005b341561073557600080fd5b61076a600480803573ffffffffffffffffffffffffffffffffffffffff16906020019091908035906020019091905050611ddc565b604051808215151515815260200191505060405180910390f35b341561078f57600080fd5b6107da600480803573ffffffffffffffffffffffffffffffffffffffff1690602001909190803573ffffffffffffffffffffffffffffffffffffffff16906020019091905050611fd8565b6040518082815260200191505060405180910390f35b34156107fb57600080fd5b610811600480803590602001909190505061205f565b005b341561081e57600080fd5b61084a600480803573ffffffffffffffffffffffffffffffffffffffff169060200190919050506120c5565b604051808373ffffffffffffffffffffffffffffffffffffffff1673ffffffffffffffffffffffffffffffffffffffff1681526020018281526020019250505060405180910390f35b341561089e57600080fd5b6108ca600480803573ffffffffffffffffffffffffffffffffffffffff16906020019091905050612271565b005b600360149054906101000a900460ff1681565b600081600260003373ffffffffffffffffffffffffffffffffffffffff1673ffffffffffffffffffffffffffffffffffffffff16815260200190815260200160002060008573ffffffffffffffffffffffffffffffffffffffff1673ffffffffffffffffffffffffffffffffffffffff168152602001908152602001600020819055508273ffffffffffffffffffffffffffffffffffffffff163373ffffffffffffffffffffffffffffffffffffffff167f8c5be1e5ebec7d5bd14f71427d1e84f3dd0314c0f7b2291e5b200ac8c7c3b925846040518082815260200191505060405180910390a36001905092915050565b6109d96125ff565b600360009054906101000a900473ffffffffffffffffffffffffffffffffffffffff1673ffffffffffffffffffffffffffffffffffffffff163373ffffffffffffffffffffffffffffffffffffffff16141515610a3557600080fd5b600073ffffffffffffffffffffffffffffffffffffffff16600760008473ffffffffffffffffffffffffffffffffffffffff1673ffffffffffffffffffffffffffffffffffffffff16815260200190815260200160002060000160009054906101000a900473ffffffffffffffffffffffffffffffffffffffff1673ffffffffffffffffffffffffffffffffffffffff16141515610ad257600080fd5b60408051908101604052808373ffffffffffffffffffffffffffffffffffffffff1681526020016000815250905080600760008473ffffffffffffffffffffffffffffffffffffffff1673ffffffffffffffffffffffffffffffffffffffff16815260200190815260200160002060008201518160000160006101000a81548173ffffffffffffffffffffffffffffffffffffffff021916908373ffffffffffffffffffffffffffffffffffffffff160217905550602082015181600201559050507feda7ca1bdfd38452992253183adb4c2f4709fae47fae8943c46bc1d2ab3dfabd82604051808273ffffffffffffffffffffffffffffffffffffffff1673ffffffffffffffffffffffffffffffffffffffff16815260200191505060405180910390a15050565b6000600154905090565b60008073ffffffffffffffffffffffffffffffffffffffff168373ffffffffffffffffffffffffffffffffffffffff1614151515610c4257600080fd5b6000808573ffffffffffffffffffffffffffffffffffffffff1673ffffffffffffffffffffffffffffffffffffffff168152602001908152602001600020548211151515610c8f57600080fd5b600260008573ffffffffffffffffffffffffffffffffffffffff1673ffffffffffffffffffffffffffffffffffffffff16815260200190815260200160002060003373ffffffffffffffffffffffffffffffffffffffff1673ffffffffffffffffffffffffffffffffffffffff168152602001908152602001600020548211151515610d1a57600080fd5b610d6b826000808773ffffffffffffffffffffffffffffffffffffffff1673ffffffffffffffffffffffffffffffffffffffff168152602001908152602001600020546123c990919063ffffffff16565b6000808673ffffffffffffffffffffffffffffffffffffffff1673ffffffffffffffffffffffffffffffffffffffff16815260200190815260200160002081905550610dfe826000808673ffffffffffffffffffffffffffffffffffffffff1673ffffffffffffffffffffffffffffffffffffffff168152602001908152602001600020546123e290919063ffffffff16565b6000808573ffffffffffffffffffffffffffffffffffffffff1673ffffffffffffffffffffffffffffffffffffffff16815260200190815260200160002081905550610ecf82600260008773ffffffffffffffffffffffffffffffffffffffff1673ffffffffffffffffffffffffffffffffffffffff16815260200190815260200160002060003373ffffffffffffffffffffffffffffffffffffffff1673ffffffffffffffffffffffffffffffffffffffff168152602001908152602001600020546123c990919063ffffffff16565b600260008673ffffffffffffffffffffffffffffffffffffffff1673ffffffffffffffffffffffffffffffffffffffff16815260200190815260200160002060003373ffffffffffffffffffffffffffffffffffffffff1673ffffffffffffffffffffffffffffffffffffffff168152602001908152602001600020819055508273ffffffffffffffffffffffffffffffffffffffff168473ffffffffffffffffffffffffffffffffffffffff167fddf252ad1be2c89b69c2b068fc378daa952ba7f163c4a11628f55a4df523b3ef846040518082815260200191505060405180910390a3600190509392505050565b610fc98282612400565b5050565b60008060008373ffffffffffffffffffffffffffffffffffffffff1673ffffffffffffffffffffffffffffffffffffffff168152602001908152602001600020549050919050565b61101d61262f565b600360009054906101000a900473ffffffffffffffffffffffffffffffffffffffff1673ffffffffffffffffffffffffffffffffffffffff163373ffffffffffffffffffffffffffffffffffffffff1614151561107957600080fd5b600073ffffffffffffffffffffffffffffffffffffffff16600760008773ffffffffffffffffffffffffffffffffffffffff1673ffffffffffffffffffffffffffffffffffffffff16815260200190815260200160002060000160009054906101000a900473ffffffffffffffffffffffffffffffffffffffff1673ffffffffffffffffffffffffffffffffffffffff161415151561111757600080fd5b600073ffffffffffffffffffffffffffffffffffffffff16600760008773ffffffffffffffffffffffffffffffffffffffff1673ffffffffffffffffffffffffffffffffffffffff16815260200190815260200160002060010160008473ffffffffffffffffffffffffffffffffffffffff1673ffffffffffffffffffffffffffffffffffffffff16815260200190815260200160002060020160009054906101000a900473ffffffffffffffffffffffffffffffffffffffff1673ffffffffffffffffffffffffffffffffffffffff161415156111f457600080fd5b606060405190810160405280856fffffffffffffffffffffffffffffffff19168152602001846fffffffffffffffffffffffffffffffff19166000191681526020018373ffffffffffffffffffffffffffffffffffffffff16815250905080600760008773ffffffffffffffffffffffffffffffffffffffff1673ffffffffffffffffffffffffffffffffffffffff16815260200190815260200160002060010160008473ffffffffffffffffffffffffffffffffffffffff1673ffffffffffffffffffffffffffffffffffffffff16815260200190815260200160002060008201518160000160006101000a8154816fffffffffffffffffffffffffffffffff0219169083700100000000000000000000000000000000900402179055506020820151816001019060001916905560408201518160020160006101000a81548173ffffffffffffffffffffffffffffffffffffffff021916908373ffffffffffffffffffffffffffffffffffffffff1602179055509050506001600760008773ffffffffffffffffffffffffffffffffffffffff1673ffffffffffffffffffffffffffffffffffffffff168152602001908152602001600020600201600082825401925050819055507f97bac3ba1e18ed0ca5d2124541698e9b2d5ff75dfd0f902ab02403e288a925208583604051808373ffffffffffffffffffffffffffffffffffffffff1673ffffffffffffffffffffffffffffffffffffffff1681526020018273ffffffffffffffffffffffffffffffffffffffff1673ffffffffffffffffffffffffffffffffffffffff1681526020019250505060405180910390a15050505050565b6000600360149054906101000a900460ff1615151561147a57600080fd5b61148f826001546123e290919063ffffffff16565b6001819055506114e6826000808673ffffffffffffffffffffffffffffffffffffffff1673ffffffffffffffffffffffffffffffffffffffff168152602001908152602001600020546123e290919063ffffffff16565b6000808573ffffffffffffffffffffffffffffffffffffffff1673ffffffffffffffffffffffffffffffffffffffff168152602001908152602001600020819055508273ffffffffffffffffffffffffffffffffffffffff167f0f6798a560793a54c3bcfe86a93cde1e73087d944c0ea20544137d4121396885836040518082815260200191505060405180910390a28273ffffffffffffffffffffffffffffffffffffffff16600073ffffffffffffffffffffffffffffffffffffffff167fddf252ad1be2c89b69c2b068fc378daa952ba7f163c4a11628f55a4df523b3ef846040518082815260200191505060405180910390a36001905092915050565b600073ffffffffffffffffffffffffffffffffffffffff16600760003373ffffffffffffffffffffffffffffffffffffffff1673ffffffffffffffffffffffffffffffffffffffff16815260200190815260200160002060000160009054906101000a900473ffffffffffffffffffffffffffffffffffffffff1673ffffffffffffffffffffffffffffffffffffffff161415151561168457600080fd5b806000803373ffffffffffffffffffffffffffffffffffffffff1673ffffffffffffffffffffffffffffffffffffffff16815260200190815260200160002054101515156116d157600080fd5b6116da816124ad565b50565b60008173ffffffffffffffffffffffffffffffffffffffff16319050919050565b6000600654905090565b600080600260003373ffffffffffffffffffffffffffffffffffffffff1673ffffffffffffffffffffffffffffffffffffffff16815260200190815260200160002060008573ffffffffffffffffffffffffffffffffffffffff1673ffffffffffffffffffffffffffffffffffffffff16815260200190815260200160002054905080831115611819576000600260003373ffffffffffffffffffffffffffffffffffffffff1673ffffffffffffffffffffffffffffffffffffffff16815260200190815260200160002060008673ffffffffffffffffffffffffffffffffffffffff1673ffffffffffffffffffffffffffffffffffffffff168152602001908152602001600020819055506118ad565b61182c83826123c990919063ffffffff16565b600260003373ffffffffffffffffffffffffffffffffffffffff1673ffffffffffffffffffffffffffffffffffffffff16815260200190815260200160002060008673ffffffffffffffffffffffffffffffffffffffff1673ffffffffffffffffffffffffffffffffffffffff168152602001908152602001600020819055505b8373ffffffffffffffffffffffffffffffffffffffff163373ffffffffffffffffffffffffffffffffffffffff167f8c5be1e5ebec7d5bd14f71427d1e84f3dd0314c0f7b2291e5b200ac8c7c3b925600260003373ffffffffffffffffffffffffffffffffffffffff1673ffffffffffffffffffffffffffffffffffffffff16815260200190815260200160002060008873ffffffffffffffffffffffffffffffffffffffff1673ffffffffffffffffffffffffffffffffffffffff168152602001908152602001600020546040518082815260200191505060405180910390a3600191505092915050565b600360009054906101000a900473ffffffffffffffffffffffffffffffffffffffff1673ffffffffffffffffffffffffffffffffffffffff163373ffffffffffffffffffffffffffffffffffffffff161415156119f557600080fd5b8060058190555050565b60008060008373ffffffffffffffffffffffffffffffffffffffff1673ffffffffffffffffffffffffffffffffffffffff168152602001908152602001600020549050919050565b6000600360149054906101000a900460ff16151515611a6557600080fd5b6001600360146101000a81548160ff0219169083151502179055507fae5184fba832cb2b1f702aca6117b8d265eaf03ad33eb133f19dde0f5920fa0860405160405180910390a16001905090565b6000600554905090565b600360009054906101000a900473ffffffffffffffffffffffffffffffffffffffff1681565b6000600454905090565b60008073ffffffffffffffffffffffffffffffffffffffff168373ffffffffffffffffffffffffffffffffffffffff1614151515611b2a57600080fd5b6000803373ffffffffffffffffffffffffffffffffffffffff1673ffffffffffffffffffffffffffffffffffffffff168152602001908152602001600020548211151515611b7757600080fd5b611bc8826000803373ffffffffffffffffffffffffffffffffffffffff1673ffffffffffffffffffffffffffffffffffffffff168152602001908152602001600020546123c990919063ffffffff16565b6000803373ffffffffffffffffffffffffffffffffffffffff1673ffffffffffffffffffffffffffffffffffffffff16815260200190815260200160002081905550611c5b826000808673ffffffffffffffffffffffffffffffffffffffff1673ffffffffffffffffffffffffffffffffffffffff168152602001908152602001600020546123e290919063ffffffff16565b6000808573ffffffffffffffffffffffffffffffffffffffff1673ffffffffffffffffffffffffffffffffffffffff168152602001908152602001600020819055508273ffffffffffffffffffffffffffffffffffffffff163373ffffffffffffffffffffffffffffffffffffffff167fddf252ad1be2c89b69c2b068fc378daa952ba7f163c4a11628f55a4df523b3ef846040518082815260200191505060405180910390a36001905092915050565b600360009054906101000a900473ffffffffffffffffffffffffffffffffffffffff1673ffffffffffffffffffffffffffffffffffffffff163373ffffffffffffffffffffffffffffffffffffffff16141515611d6857600080fd5b611d728282612400565b5050565b600360009054906101000a900473ffffffffffffffffffffffffffffffffffffffff1673ffffffffffffffffffffffffffffffffffffffff163373ffffffffffffffffffffffffffffffffffffffff16141515611dd257600080fd5b8060048190555050565b6000611e6d82600260003373ffffffffffffffffffffffffffffffffffffffff1673ffffffffffffffffffffffffffffffffffffffff16815260200190815260200160002060008673ffffffffffffffffffffffffffffffffffffffff1673ffffffffffffffffffffffffffffffffffffffff168152602001908152602001600020546123e290919063ffffffff16565b600260003373ffffffffffffffffffffffffffffffffffffffff1673ffffffffffffffffffffffffffffffffffffffff16815260200190815260200160002060008573ffffffffffffffffffffffffffffffffffffffff1673ffffffffffffffffffffffffffffffffffffffff168152602001908152602001600020819055508273ffffffffffffffffffffffffffffffffffffffff163373ffffffffffffffffffffffffffffffffffffffff167f8c5be1e5ebec7d5bd14f71427d1e84f3dd0314c0f7b2291e5b200ac8c7c3b925600260003373ffffffffffffffffffffffffffffffffffffffff1673ffffffffffffffffffffffffffffffffffffffff16815260200190815260200160002060008773ffffffffffffffffffffffffffffffffffffffff1673ffffffffffffffffffffffffffffffffffffffff168152602001908152602001600020546040518082815260200191505060405180910390a36001905092915050565b6000600260008473ffffffffffffffffffffffffffffffffffffffff1673ffffffffffffffffffffffffffffffffffffffff16815260200190815260200160002060008373ffffffffffffffffffffffffffffffffffffffff1673ffffffffffffffffffffffffffffffffffffffff16815260200190815260200160002054905092915050565b600360009054906101000a900473ffffffffffffffffffffffffffffffffffffffff1673ffffffffffffffffffffffffffffffffffffffff163373ffffffffffffffffffffffffffffffffffffffff161415156120bb57600080fd5b8060068190555050565b600080600360009054906101000a900473ffffffffffffffffffffffffffffffffffffffff1673ffffffffffffffffffffffffffffffffffffffff163373ffffffffffffffffffffffffffffffffffffffff1614151561212457600080fd5b600073ffffffffffffffffffffffffffffffffffffffff16600760008573ffffffffffffffffffffffffffffffffffffffff1673ffffffffffffffffffffffffffffffffffffffff16815260200190815260200160002060000160009054906101000a900473ffffffffffffffffffffffffffffffffffffffff1673ffffffffffffffffffffffffffffffffffffffff16141515156121c257600080fd5b600760008473ffffffffffffffffffffffffffffffffffffffff1673ffffffffffffffffffffffffffffffffffffffff16815260200190815260200160002060000160009054906101000a900473ffffffffffffffffffffffffffffffffffffffff16600760008573ffffffffffffffffffffffffffffffffffffffff1673ffffffffffffffffffffffffffffffffffffffff1681526020019081526020016000206002015491509150915091565b600360009054906101000a900473ffffffffffffffffffffffffffffffffffffffff1673ffffffffffffffffffffffffffffffffffffffff163373ffffffffffffffffffffffffffffffffffffffff161415156122cd57600080fd5b600073ffffffffffffffffffffffffffffffffffffffff168173ffffffffffffffffffffffffffffffffffffffff161415151561230957600080fd5b8073ffffffffffffffffffffffffffffffffffffffff16600360009054906101000a900473ffffffffffffffffffffffffffffffffffffffff1673ffffffffffffffffffffffffffffffffffffffff167f8be0079c531659141344cd1fd0a4f28419497f9722a3daafe3b4186f6b6457e060405160405180910390a380600360006101000a81548173ffffffffffffffffffffffffffffffffffffffff021916908373ffffffffffffffffffffffffffffffffffffffff16021790555050565b60008282111515156123d757fe5b818303905092915050565b60008082840190508381101515156123f657fe5b8091505092915050565b600073ffffffffffffffffffffffffffffffffffffffff16600760008473ffffffffffffffffffffffffffffffffffffffff1673ffffffffffffffffffffffffffffffffffffffff16815260200190815260200160002060000160009054906101000a900473ffffffffffffffffffffffffffffffffffffffff1673ffffffffffffffffffffffffffffffffffffffff161415151561249e57600080fd5b6124a8828261145c565b505050565b60008060003373ffffffffffffffffffffffffffffffffffffffff1673ffffffffffffffffffffffffffffffffffffffff1681526020019081526020016000205482111515156124fc57600080fd5b339050612550826000808473ffffffffffffffffffffffffffffffffffffffff1673ffffffffffffffffffffffffffffffffffffffff168152602001908152602001600020546123c990919063ffffffff16565b6000808373ffffffffffffffffffffffffffffffffffffffff1673ffffffffffffffffffffffffffffffffffffffff168152602001908152602001600020819055506125a7826001546123c990919063ffffffff16565b6001819055508073ffffffffffffffffffffffffffffffffffffffff167fcc16f5dbb4873280815c1ee09dbd06736cffcc184412cf7a71a0fdb75d397ca5836040518082815260200191505060405180910390a25050565b6040805190810160405280600073ffffffffffffffffffffffffffffffffffffffff168152602001600081525090565b60606040519081016040528060006fffffffffffffffffffffffffffffffff1916815260200160008019168152602001600073ffffffffffffffffffffffffffffffffffffffff16815250905600a165627a7a72305820f4753847496d0dbf466823f75bd6cfef402d912d5874f0089d6abd4e0f4092410029",
  "source": "pragma solidity ^0.4.18;\nimport \"./helpers/CustomMintableToken.sol\";\nimport \"zeppelin-solidity/contracts/token/ERC20/BurnableToken.sol\";\n\ncontract SimpliWaterToken is CustomMintableToken, BurnableToken {\n\n    uint private dailyLimit; //1000 = 1L\n    uint private penaltyChargePerLiter; //1000 = 1R\n    uint private normalChargePerLiter; //1000 = 1R\n    mapping(address => Meter) private registeredMeters;\n    uint private constant ETHERIUM_TO_SWT_EXCHANGE_RATE = 2; // 1 ETH = 2 SWT for the sake of the proof of concept.\n\n    struct Meter {\n        address meterAddress;\n        mapping(address => HouseMember) houseMembers;\n        uint totalHouseMembers;\n    }\n\n    struct HouseMember {\n        bytes16 firstName;\n        bytes32 lastName;\n        address memberAddress;\n    }\n\n    event MeterRegisteredEvent(address _meterAddress);\n    event UserAddedEvent(address _meterAddress, address _memberAddress);\n    \n\n    function SimpliWaterToken() public {\n        totalSupply_ = 0; // New coins will continuously be minted when needed.\n        dailyLimit = 50000;\n        penaltyChargePerLiter = 4000;\n        normalChargePerLiter = 1000;\n    }\n   \n    function registerMeter(address _meterAddress) onlyOwner public {\n        require(registeredMeters[_meterAddress].meterAddress == address(0));\n        var newMeter = Meter({meterAddress: _meterAddress, totalHouseMembers:0});\n        registeredMeters[_meterAddress] = newMeter;\n        MeterRegisteredEvent(_meterAddress);\n    }\n\n    function retrieveMeterHouseMemberTotal(address _meterAddress) onlyOwner view public returns(address meterAddress, uint totalHouseMembers) {\n        require(registeredMeters[_meterAddress].meterAddress != address(0));\n        return (registeredMeters[_meterAddress].meterAddress, registeredMeters[_meterAddress].totalHouseMembers);\n    }\n\n   function addUserToMeter(address _meterAddress, bytes16 _firstName, bytes16 _lastName, address _memberAddress) onlyOwner public {\n        require(registeredMeters[_meterAddress].meterAddress != address(0));\n        require(registeredMeters[_meterAddress].houseMembers[_memberAddress].memberAddress == address(0));        \n        var newMember = HouseMember(_firstName, _lastName, _memberAddress);\n        registeredMeters[_meterAddress].houseMembers[_memberAddress] = newMember;\n        registeredMeters[_meterAddress].totalHouseMembers += 1;\n        UserAddedEvent(_meterAddress, _memberAddress);\n    }\n\n    function setDailyLimit(uint _dailyLimit) onlyOwner public {\n        dailyLimit = _dailyLimit;\n    }\n\n   function getDailyLimit() view public returns(uint _dailyLimit) {\n        return dailyLimit;\n    }\n\n    function setPenaltyChargePerLiter(uint _penaltyCharge) onlyOwner public {\n        penaltyChargePerLiter = _penaltyCharge;\n    }\n\n   function getPenaltyChargePerLiter() view public returns (uint penaltyCharge) {\n        return penaltyChargePerLiter;\n    }\n\n    function setNormalChargePerLiter(uint _normalCharge) onlyOwner public {\n        normalChargePerLiter = _normalCharge;\n    }\n\n    function getNormalChargePerLiter() view public returns(uint _normalCharge) {\n        return normalChargePerLiter;\n    }\n\n    function topUpBalance(address _meterAddress, uint _value) onlyOwner public {\n        topUp(_meterAddress, _value);\n    }\n\n    function topUp(address _meterAddress, uint _value) private {\n        require(registeredMeters[_meterAddress].meterAddress != address(0));\n        mint(_meterAddress, _value);    \n    }\n\n    function burn(uint _tokensToBurn) public {\n        require(registeredMeters[msg.sender].meterAddress != address(0));\n        require(balances[msg.sender] >= _tokensToBurn);\n        super.burn(_tokensToBurn);\n    }\n\n    function topUpBalanceWithEther(address _meterAddress, uint _value) payable public {\n        topUp(_meterAddress, _value);\n    }\n\n\n    function getTokenBalance(address _meterAddress) view public returns(uint) {\n    return balances[_meterAddress];\n    }\n\n    function getEthBalance(address _meterAddress) view public returns(uint) {\n    return _meterAddress.balance;\n    }\n\n   }",
  "sourcePath": "/home/ben/Development/SimpliWater/contracts/SimpliWaterToken.sol",
  "compiler": {
    "name": "solc",
    "version": "0.4.18+commit.9cf6e910.Emscripten.clang"
  },
  "schemaVersion": "1.0.1",
  "updatedAt": "2018-01-30T14:55:59.537Z"
}