{
  "contractName": "SimpliWaterToken",
  "abi": [
    {
      "constant": true,
      "inputs": [],
      "name": "mintingFinished",
      "outputs": [
        {
          "name": "",
          "type": "bool"
        }
      ],
      "payable": false,
      "stateMutability": "view",
      "type": "function"
    },
    {
      "constant": false,
      "inputs": [
        {
          "name": "_spender",
          "type": "address"
        },
        {
          "name": "_value",
          "type": "uint256"
        }
      ],
      "name": "approve",
      "outputs": [
        {
          "name": "",
          "type": "bool"
        }
      ],
      "payable": false,
      "stateMutability": "nonpayable",
      "type": "function"
    },
    {
      "constant": false,
      "inputs": [
        {
          "name": "_meterAddress",
          "type": "address"
        }
      ],
      "name": "registerMeter",
      "outputs": [],
      "payable": false,
      "stateMutability": "nonpayable",
      "type": "function"
    },
    {
      "constant": true,
      "inputs": [],
      "name": "totalSupply",
      "outputs": [
        {
          "name": "",
          "type": "uint256"
        }
      ],
      "payable": false,
      "stateMutability": "view",
      "type": "function"
    },
    {
      "constant": false,
      "inputs": [
        {
          "name": "_from",
          "type": "address"
        },
        {
          "name": "_to",
          "type": "address"
        },
        {
          "name": "_value",
          "type": "uint256"
        }
      ],
      "name": "transferFrom",
      "outputs": [
        {
          "name": "",
          "type": "bool"
        }
      ],
      "payable": false,
      "stateMutability": "nonpayable",
      "type": "function"
    },
    {
      "constant": false,
      "inputs": [
        {
          "name": "_meterAddress",
          "type": "address"
        },
        {
          "name": "_value",
          "type": "uint256"
        }
      ],
      "name": "topUpBalanceWithEther",
      "outputs": [],
      "payable": true,
      "stateMutability": "payable",
      "type": "function"
    },
    {
      "constant": true,
      "inputs": [
        {
          "name": "_meterAddress",
          "type": "address"
        }
      ],
      "name": "getTokenBalance",
      "outputs": [
        {
          "name": "",
          "type": "uint256"
        }
      ],
      "payable": false,
      "stateMutability": "view",
      "type": "function"
    },
    {
      "constant": false,
      "inputs": [
        {
          "name": "_meterAddress",
          "type": "address"
        },
        {
          "name": "_firstName",
          "type": "bytes16"
        },
        {
          "name": "_lastName",
          "type": "bytes16"
        },
        {
          "name": "_memberAddress",
          "type": "address"
        }
      ],
      "name": "addUserToMeter",
      "outputs": [],
      "payable": false,
      "stateMutability": "nonpayable",
      "type": "function"
    },
    {
      "constant": false,
      "inputs": [
        {
          "name": "_to",
          "type": "address"
        },
        {
          "name": "_amount",
          "type": "uint256"
        }
      ],
      "name": "mint",
      "outputs": [
        {
          "name": "",
          "type": "bool"
        }
      ],
      "payable": false,
      "stateMutability": "nonpayable",
      "type": "function"
    },
    {
      "constant": false,
      "inputs": [
        {
          "name": "_tokensToBurn",
          "type": "uint256"
        }
      ],
      "name": "burn",
      "outputs": [],
      "payable": false,
      "stateMutability": "nonpayable",
      "type": "function"
    },
    {
      "constant": true,
      "inputs": [
        {
          "name": "_meterAddress",
          "type": "address"
        }
      ],
      "name": "getEthBalance",
      "outputs": [
        {
          "name": "",
          "type": "uint256"
        }
      ],
      "payable": false,
      "stateMutability": "view",
      "type": "function"
    },
    {
      "constant": true,
      "inputs": [],
      "name": "getNormalChargePerLiter",
      "outputs": [
        {
          "name": "_normalCharge",
          "type": "uint256"
        }
      ],
      "payable": false,
      "stateMutability": "view",
      "type": "function"
    },
    {
      "constant": false,
      "inputs": [
        {
          "name": "_spender",
          "type": "address"
        },
        {
          "name": "_subtractedValue",
          "type": "uint256"
        }
      ],
      "name": "decreaseApproval",
      "outputs": [
        {
          "name": "",
          "type": "bool"
        }
      ],
      "payable": false,
      "stateMutability": "nonpayable",
      "type": "function"
    },
    {
      "constant": false,
      "inputs": [
        {
          "name": "_penaltyCharge",
          "type": "uint256"
        }
      ],
      "name": "setPenaltyChargePerLiter",
      "outputs": [],
      "payable": false,
      "stateMutability": "nonpayable",
      "type": "function"
    },
    {
      "constant": true,
      "inputs": [
        {
          "name": "_owner",
          "type": "address"
        }
      ],
      "name": "balanceOf",
      "outputs": [
        {
          "name": "balance",
          "type": "uint256"
        }
      ],
      "payable": false,
      "stateMutability": "view",
      "type": "function"
    },
    {
      "constant": true,
      "inputs": [
        {
          "name": "_meterAddress",
          "type": "address"
        }
      ],
      "name": "retrieveMeterHouseTotal",
      "outputs": [
        {
          "name": "totalHouseMembers",
          "type": "uint256"
        }
      ],
      "payable": false,
      "stateMutability": "view",
      "type": "function"
    },
    {
      "constant": false,
      "inputs": [],
      "name": "finishMinting",
      "outputs": [
        {
          "name": "",
          "type": "bool"
        }
      ],
      "payable": false,
      "stateMutability": "nonpayable",
      "type": "function"
    },
    {
      "constant": true,
      "inputs": [],
      "name": "getPenaltyChargePerLiter",
      "outputs": [
        {
          "name": "penaltyCharge",
          "type": "uint256"
        }
      ],
      "payable": false,
      "stateMutability": "view",
      "type": "function"
    },
    {
      "constant": true,
      "inputs": [],
      "name": "owner",
      "outputs": [
        {
          "name": "",
          "type": "address"
        }
      ],
      "payable": false,
      "stateMutability": "view",
      "type": "function"
    },
    {
      "constant": true,
      "inputs": [],
      "name": "getDailyLimit",
      "outputs": [
        {
          "name": "_dailyLimit",
          "type": "uint256"
        }
      ],
      "payable": false,
      "stateMutability": "view",
      "type": "function"
    },
    {
      "constant": false,
      "inputs": [
        {
          "name": "_to",
          "type": "address"
        },
        {
          "name": "_value",
          "type": "uint256"
        }
      ],
      "name": "transfer",
      "outputs": [
        {
          "name": "",
          "type": "bool"
        }
      ],
      "payable": false,
      "stateMutability": "nonpayable",
      "type": "function"
    },
    {
      "constant": false,
      "inputs": [
        {
          "name": "_meterAddress",
          "type": "address"
        },
        {
          "name": "_value",
          "type": "uint256"
        }
      ],
      "name": "topUpBalance",
      "outputs": [],
      "payable": false,
      "stateMutability": "nonpayable",
      "type": "function"
    },
    {
      "constant": false,
      "inputs": [
        {
          "name": "_dailyLimit",
          "type": "uint256"
        }
      ],
      "name": "setDailyLimit",
      "outputs": [],
      "payable": false,
      "stateMutability": "nonpayable",
      "type": "function"
    },
    {
      "constant": true,
      "inputs": [
        {
          "name": "_meterAddress",
          "type": "address"
        }
      ],
      "name": "retrieveMeterStats",
      "outputs": [
        {
          "name": "meterAddress",
          "type": "address"
        },
        {
          "name": "balance",
          "type": "uint256"
        },
        {
          "name": "totalHouseMembers",
          "type": "uint256"
        }
      ],
      "payable": false,
      "stateMutability": "view",
      "type": "function"
    },
    {
      "constant": false,
      "inputs": [
        {
          "name": "_spender",
          "type": "address"
        },
        {
          "name": "_addedValue",
          "type": "uint256"
        }
      ],
      "name": "increaseApproval",
      "outputs": [
        {
          "name": "",
          "type": "bool"
        }
      ],
      "payable": false,
      "stateMutability": "nonpayable",
      "type": "function"
    },
    {
      "constant": true,
      "inputs": [
        {
          "name": "_owner",
          "type": "address"
        },
        {
          "name": "_spender",
          "type": "address"
        }
      ],
      "name": "allowance",
      "outputs": [
        {
          "name": "",
          "type": "uint256"
        }
      ],
      "payable": false,
      "stateMutability": "view",
      "type": "function"
    },
    {
      "constant": false,
      "inputs": [
        {
          "name": "_normalCharge",
          "type": "uint256"
        }
      ],
      "name": "setNormalChargePerLiter",
      "outputs": [],
      "payable": false,
      "stateMutability": "nonpayable",
      "type": "function"
    },
    {
      "constant": false,
      "inputs": [
        {
          "name": "newOwner",
          "type": "address"
        }
      ],
      "name": "transferOwnership",
      "outputs": [],
      "payable": false,
      "stateMutability": "nonpayable",
      "type": "function"
    },
    {
      "inputs": [],
      "payable": false,
      "stateMutability": "nonpayable",
      "type": "constructor"
    },
    {
      "anonymous": false,
      "inputs": [
        {
          "indexed": false,
          "name": "_meterAddress",
          "type": "address"
        }
      ],
      "name": "MeterRegisteredEvent",
      "type": "event"
    },
    {
      "anonymous": false,
      "inputs": [
        {
          "indexed": false,
          "name": "_meterAddress",
          "type": "address"
        },
        {
          "indexed": false,
          "name": "_memberAddress",
          "type": "address"
        }
      ],
      "name": "UserAddedEvent",
      "type": "event"
    },
    {
      "anonymous": false,
      "inputs": [
        {
          "indexed": true,
          "name": "burner",
          "type": "address"
        },
        {
          "indexed": false,
          "name": "value",
          "type": "uint256"
        }
      ],
      "name": "Burn",
      "type": "event"
    },
    {
      "anonymous": false,
      "inputs": [
        {
          "indexed": true,
          "name": "to",
          "type": "address"
        },
        {
          "indexed": false,
          "name": "amount",
          "type": "uint256"
        }
      ],
      "name": "Mint",
      "type": "event"
    },
    {
      "anonymous": false,
      "inputs": [],
      "name": "MintFinished",
      "type": "event"
    },
    {
      "anonymous": false,
      "inputs": [
        {
          "indexed": true,
          "name": "previousOwner",
          "type": "address"
        },
        {
          "indexed": true,
          "name": "newOwner",
          "type": "address"
        }
      ],
      "name": "OwnershipTransferred",
      "type": "event"
    },
    {
      "anonymous": false,
      "inputs": [
        {
          "indexed": true,
          "name": "owner",
          "type": "address"
        },
        {
          "indexed": true,
          "name": "spender",
          "type": "address"
        },
        {
          "indexed": false,
          "name": "value",
          "type": "uint256"
        }
      ],
      "name": "Approval",
      "type": "event"
    },
    {
      "anonymous": false,
      "inputs": [
        {
          "indexed": true,
          "name": "from",
          "type": "address"
        },
        {
          "indexed": true,
          "name": "to",
          "type": "address"
        },
        {
          "indexed": false,
          "name": "value",
          "type": "uint256"
        }
      ],
      "name": "Transfer",
      "type": "event"
    }
  ],
  "bytecode": "0x60606040526000600360146101000a81548160ff021916908315150217905550341561002a57600080fd5b33600360006101000a81548173ffffffffffffffffffffffffffffffffffffffff021916908373ffffffffffffffffffffffffffffffffffffffff160217905550600060018190555061c350600481905550610fa06005819055506103e86006819055506127a38061009d6000396000f30060606040526004361061016a576000357c0100000000000000000000000000000000000000000000000000000000900463ffffffff16806305d2035b1461016f578063095ea7b31461019c5780630ff98543146101f657806318160ddd1461022f57806323b872dd146102585780632cd64a06146102d15780633aecd0e3146103085780633ddf1f011461035557806340c10f19146103e557806342966c681461043f5780634d2301cc146104625780634d9f8721146104af57806366188463146104d85780636d16eff31461053257806370a082311461055557806376e236e3146105a25780637d64bcb4146105ef57806385d389791461061c5780638da5cb5b14610645578063a6895b5a1461069a578063a9059cbb146106c3578063b0da688c1461071d578063b20d30a91461075f578063c40b2c7214610782578063d73dd62314610809578063dd62ed3e14610863578063ef90c198146108cf578063f2fde38b146108f2575b600080fd5b341561017a57600080fd5b61018261092b565b604051808215151515815260200191505060405180910390f35b34156101a757600080fd5b6101dc600480803573ffffffffffffffffffffffffffffffffffffffff1690602001909190803590602001909190505061093e565b604051808215151515815260200191505060405180910390f35b341561020157600080fd5b61022d600480803573ffffffffffffffffffffffffffffffffffffffff16906020019091905050610a30565b005b341561023a57600080fd5b610242610c5a565b6040518082815260200191505060405180910390f35b341561026357600080fd5b6102b7600480803573ffffffffffffffffffffffffffffffffffffffff1690602001909190803573ffffffffffffffffffffffffffffffffffffffff16906020019091908035906020019091905050610c64565b604051808215151515815260200191505060405180910390f35b610306600480803573ffffffffffffffffffffffffffffffffffffffff1690602001909190803590602001909190505061101e565b005b341561031357600080fd5b61033f600480803573ffffffffffffffffffffffffffffffffffffffff1690602001909190505061102c565b6040518082815260200191505060405180910390f35b341561036057600080fd5b6103e3600480803573ffffffffffffffffffffffffffffffffffffffff169060200190919080356fffffffffffffffffffffffffffffffff19169060200190919080356fffffffffffffffffffffffffffffffff191690602001909190803573ffffffffffffffffffffffffffffffffffffffff16906020019091905050611074565b005b34156103f057600080fd5b610425600480803573ffffffffffffffffffffffffffffffffffffffff169060200190919080359060200190919050506114bb565b604051808215151515815260200191505060405180910390f35b341561044a57600080fd5b6104606004808035906020019091905050611645565b005b341561046d57600080fd5b610499600480803573ffffffffffffffffffffffffffffffffffffffff1690602001909190505061173c565b6040518082815260200191505060405180910390f35b34156104ba57600080fd5b6104c261175d565b6040518082815260200191505060405180910390f35b34156104e357600080fd5b610518600480803573ffffffffffffffffffffffffffffffffffffffff16906020019091908035906020019091905050611767565b604051808215151515815260200191505060405180910390f35b341561053d57600080fd5b61055360048080359060200190919050506119f8565b005b341561056057600080fd5b61058c600480803573ffffffffffffffffffffffffffffffffffffffff16906020019091905050611a5e565b6040518082815260200191505060405180910390f35b34156105ad57600080fd5b6105d9600480803573ffffffffffffffffffffffffffffffffffffffff16906020019091905050611aa6565b6040518082815260200191505060405180910390f35b34156105fa57600080fd5b610602611b8f565b604051808215151515815260200191505060405180910390f35b341561062757600080fd5b61062f611bfb565b6040518082815260200191505060405180910390f35b341561065057600080fd5b610658611c05565b604051808273ffffffffffffffffffffffffffffffffffffffff1673ffffffffffffffffffffffffffffffffffffffff16815260200191505060405180910390f35b34156106a557600080fd5b6106ad611c2b565b6040518082815260200191505060405180910390f35b34156106ce57600080fd5b610703600480803573ffffffffffffffffffffffffffffffffffffffff16906020019091908035906020019091905050611c35565b604051808215151515815260200191505060405180910390f35b341561072857600080fd5b61075d600480803573ffffffffffffffffffffffffffffffffffffffff16906020019091908035906020019091905050611e54565b005b341561076a57600080fd5b6107806004808035906020019091905050611ebe565b005b341561078d57600080fd5b6107b9600480803573ffffffffffffffffffffffffffffffffffffffff16906020019091905050611f24565b604051808473ffffffffffffffffffffffffffffffffffffffff1673ffffffffffffffffffffffffffffffffffffffff168152602001838152602001828152602001935050505060405180910390f35b341561081457600080fd5b610849600480803573ffffffffffffffffffffffffffffffffffffffff16906020019091908035906020019091905050612082565b604051808215151515815260200191505060405180910390f35b341561086e57600080fd5b6108b9600480803573ffffffffffffffffffffffffffffffffffffffff1690602001909190803573ffffffffffffffffffffffffffffffffffffffff1690602001909190505061227e565b6040518082815260200191505060405180910390f35b34156108da57600080fd5b6108f06004808035906020019091905050612305565b005b34156108fd57600080fd5b610929600480803573ffffffffffffffffffffffffffffffffffffffff1690602001909190505061236b565b005b600360149054906101000a900460ff1681565b600081600260003373ffffffffffffffffffffffffffffffffffffffff1673ffffffffffffffffffffffffffffffffffffffff16815260200190815260200160002060008573ffffffffffffffffffffffffffffffffffffffff1673ffffffffffffffffffffffffffffffffffffffff168152602001908152602001600020819055508273ffffffffffffffffffffffffffffffffffffffff163373ffffffffffffffffffffffffffffffffffffffff167f8c5be1e5ebec7d5bd14f71427d1e84f3dd0314c0f7b2291e5b200ac8c7c3b925846040518082815260200191505060405180910390a36001905092915050565b610a386126f9565b600360009054906101000a900473ffffffffffffffffffffffffffffffffffffffff1673ffffffffffffffffffffffffffffffffffffffff163373ffffffffffffffffffffffffffffffffffffffff16141515610a9457600080fd5b600073ffffffffffffffffffffffffffffffffffffffff16600760008473ffffffffffffffffffffffffffffffffffffffff1673ffffffffffffffffffffffffffffffffffffffff16815260200190815260200160002060000160009054906101000a900473ffffffffffffffffffffffffffffffffffffffff1673ffffffffffffffffffffffffffffffffffffffff16141515610b3157600080fd5b60408051908101604052808373ffffffffffffffffffffffffffffffffffffffff1681526020016000815250905080600760008473ffffffffffffffffffffffffffffffffffffffff1673ffffffffffffffffffffffffffffffffffffffff16815260200190815260200160002060008201518160000160006101000a81548173ffffffffffffffffffffffffffffffffffffffff021916908373ffffffffffffffffffffffffffffffffffffffff160217905550602082015181600201559050507feda7ca1bdfd38452992253183adb4c2f4709fae47fae8943c46bc1d2ab3dfabd82604051808273ffffffffffffffffffffffffffffffffffffffff1673ffffffffffffffffffffffffffffffffffffffff16815260200191505060405180910390a15050565b6000600154905090565b60008073ffffffffffffffffffffffffffffffffffffffff168373ffffffffffffffffffffffffffffffffffffffff1614151515610ca157600080fd5b6000808573ffffffffffffffffffffffffffffffffffffffff1673ffffffffffffffffffffffffffffffffffffffff168152602001908152602001600020548211151515610cee57600080fd5b600260008573ffffffffffffffffffffffffffffffffffffffff1673ffffffffffffffffffffffffffffffffffffffff16815260200190815260200160002060003373ffffffffffffffffffffffffffffffffffffffff1673ffffffffffffffffffffffffffffffffffffffff168152602001908152602001600020548211151515610d7957600080fd5b610dca826000808773ffffffffffffffffffffffffffffffffffffffff1673ffffffffffffffffffffffffffffffffffffffff168152602001908152602001600020546124c390919063ffffffff16565b6000808673ffffffffffffffffffffffffffffffffffffffff1673ffffffffffffffffffffffffffffffffffffffff16815260200190815260200160002081905550610e5d826000808673ffffffffffffffffffffffffffffffffffffffff1673ffffffffffffffffffffffffffffffffffffffff168152602001908152602001600020546124dc90919063ffffffff16565b6000808573ffffffffffffffffffffffffffffffffffffffff1673ffffffffffffffffffffffffffffffffffffffff16815260200190815260200160002081905550610f2e82600260008773ffffffffffffffffffffffffffffffffffffffff1673ffffffffffffffffffffffffffffffffffffffff16815260200190815260200160002060003373ffffffffffffffffffffffffffffffffffffffff1673ffffffffffffffffffffffffffffffffffffffff168152602001908152602001600020546124c390919063ffffffff16565b600260008673ffffffffffffffffffffffffffffffffffffffff1673ffffffffffffffffffffffffffffffffffffffff16815260200190815260200160002060003373ffffffffffffffffffffffffffffffffffffffff1673ffffffffffffffffffffffffffffffffffffffff168152602001908152602001600020819055508273ffffffffffffffffffffffffffffffffffffffff168473ffffffffffffffffffffffffffffffffffffffff167fddf252ad1be2c89b69c2b068fc378daa952ba7f163c4a11628f55a4df523b3ef846040518082815260200191505060405180910390a3600190509392505050565b61102882826124fa565b5050565b60008060008373ffffffffffffffffffffffffffffffffffffffff1673ffffffffffffffffffffffffffffffffffffffff168152602001908152602001600020549050919050565b61107c612729565b600360009054906101000a900473ffffffffffffffffffffffffffffffffffffffff1673ffffffffffffffffffffffffffffffffffffffff163373ffffffffffffffffffffffffffffffffffffffff161415156110d857600080fd5b600073ffffffffffffffffffffffffffffffffffffffff16600760008773ffffffffffffffffffffffffffffffffffffffff1673ffffffffffffffffffffffffffffffffffffffff16815260200190815260200160002060000160009054906101000a900473ffffffffffffffffffffffffffffffffffffffff1673ffffffffffffffffffffffffffffffffffffffff161415151561117657600080fd5b600073ffffffffffffffffffffffffffffffffffffffff16600760008773ffffffffffffffffffffffffffffffffffffffff1673ffffffffffffffffffffffffffffffffffffffff16815260200190815260200160002060010160008473ffffffffffffffffffffffffffffffffffffffff1673ffffffffffffffffffffffffffffffffffffffff16815260200190815260200160002060020160009054906101000a900473ffffffffffffffffffffffffffffffffffffffff1673ffffffffffffffffffffffffffffffffffffffff1614151561125357600080fd5b606060405190810160405280856fffffffffffffffffffffffffffffffff19168152602001846fffffffffffffffffffffffffffffffff19166000191681526020018373ffffffffffffffffffffffffffffffffffffffff16815250905080600760008773ffffffffffffffffffffffffffffffffffffffff1673ffffffffffffffffffffffffffffffffffffffff16815260200190815260200160002060010160008473ffffffffffffffffffffffffffffffffffffffff1673ffffffffffffffffffffffffffffffffffffffff16815260200190815260200160002060008201518160000160006101000a8154816fffffffffffffffffffffffffffffffff0219169083700100000000000000000000000000000000900402179055506020820151816001019060001916905560408201518160020160006101000a81548173ffffffffffffffffffffffffffffffffffffffff021916908373ffffffffffffffffffffffffffffffffffffffff1602179055509050506001600760008773ffffffffffffffffffffffffffffffffffffffff1673ffffffffffffffffffffffffffffffffffffffff168152602001908152602001600020600201600082825401925050819055507f97bac3ba1e18ed0ca5d2124541698e9b2d5ff75dfd0f902ab02403e288a925208583604051808373ffffffffffffffffffffffffffffffffffffffff1673ffffffffffffffffffffffffffffffffffffffff1681526020018273ffffffffffffffffffffffffffffffffffffffff1673ffffffffffffffffffffffffffffffffffffffff1681526020019250505060405180910390a15050505050565b6000600360149054906101000a900460ff161515156114d957600080fd5b6114ee826001546124dc90919063ffffffff16565b600181905550611545826000808673ffffffffffffffffffffffffffffffffffffffff1673ffffffffffffffffffffffffffffffffffffffff168152602001908152602001600020546124dc90919063ffffffff16565b6000808573ffffffffffffffffffffffffffffffffffffffff1673ffffffffffffffffffffffffffffffffffffffff168152602001908152602001600020819055508273ffffffffffffffffffffffffffffffffffffffff167f0f6798a560793a54c3bcfe86a93cde1e73087d944c0ea20544137d4121396885836040518082815260200191505060405180910390a28273ffffffffffffffffffffffffffffffffffffffff16600073ffffffffffffffffffffffffffffffffffffffff167fddf252ad1be2c89b69c2b068fc378daa952ba7f163c4a11628f55a4df523b3ef846040518082815260200191505060405180910390a36001905092915050565b600073ffffffffffffffffffffffffffffffffffffffff16600760003373ffffffffffffffffffffffffffffffffffffffff1673ffffffffffffffffffffffffffffffffffffffff16815260200190815260200160002060000160009054906101000a900473ffffffffffffffffffffffffffffffffffffffff1673ffffffffffffffffffffffffffffffffffffffff16141515156116e357600080fd5b806000803373ffffffffffffffffffffffffffffffffffffffff1673ffffffffffffffffffffffffffffffffffffffff168152602001908152602001600020541015151561173057600080fd5b611739816125a7565b50565b60008173ffffffffffffffffffffffffffffffffffffffff16319050919050565b6000600654905090565b600080600260003373ffffffffffffffffffffffffffffffffffffffff1673ffffffffffffffffffffffffffffffffffffffff16815260200190815260200160002060008573ffffffffffffffffffffffffffffffffffffffff1673ffffffffffffffffffffffffffffffffffffffff16815260200190815260200160002054905080831115611878576000600260003373ffffffffffffffffffffffffffffffffffffffff1673ffffffffffffffffffffffffffffffffffffffff16815260200190815260200160002060008673ffffffffffffffffffffffffffffffffffffffff1673ffffffffffffffffffffffffffffffffffffffff1681526020019081526020016000208190555061190c565b61188b83826124c390919063ffffffff16565b600260003373ffffffffffffffffffffffffffffffffffffffff1673ffffffffffffffffffffffffffffffffffffffff16815260200190815260200160002060008673ffffffffffffffffffffffffffffffffffffffff1673ffffffffffffffffffffffffffffffffffffffff168152602001908152602001600020819055505b8373ffffffffffffffffffffffffffffffffffffffff163373ffffffffffffffffffffffffffffffffffffffff167f8c5be1e5ebec7d5bd14f71427d1e84f3dd0314c0f7b2291e5b200ac8c7c3b925600260003373ffffffffffffffffffffffffffffffffffffffff1673ffffffffffffffffffffffffffffffffffffffff16815260200190815260200160002060008873ffffffffffffffffffffffffffffffffffffffff1673ffffffffffffffffffffffffffffffffffffffff168152602001908152602001600020546040518082815260200191505060405180910390a3600191505092915050565b600360009054906101000a900473ffffffffffffffffffffffffffffffffffffffff1673ffffffffffffffffffffffffffffffffffffffff163373ffffffffffffffffffffffffffffffffffffffff16141515611a5457600080fd5b8060058190555050565b60008060008373ffffffffffffffffffffffffffffffffffffffff1673ffffffffffffffffffffffffffffffffffffffff168152602001908152602001600020549050919050565b60008073ffffffffffffffffffffffffffffffffffffffff16600760008473ffffffffffffffffffffffffffffffffffffffff1673ffffffffffffffffffffffffffffffffffffffff16815260200190815260200160002060000160009054906101000a900473ffffffffffffffffffffffffffffffffffffffff1673ffffffffffffffffffffffffffffffffffffffff1614151515611b4557600080fd5b600760008373ffffffffffffffffffffffffffffffffffffffff1673ffffffffffffffffffffffffffffffffffffffff168152602001908152602001600020600201549050919050565b6000600360149054906101000a900460ff16151515611bad57600080fd5b6001600360146101000a81548160ff0219169083151502179055507fae5184fba832cb2b1f702aca6117b8d265eaf03ad33eb133f19dde0f5920fa0860405160405180910390a16001905090565b6000600554905090565b600360009054906101000a900473ffffffffffffffffffffffffffffffffffffffff1681565b6000600454905090565b60008073ffffffffffffffffffffffffffffffffffffffff168373ffffffffffffffffffffffffffffffffffffffff1614151515611c7257600080fd5b6000803373ffffffffffffffffffffffffffffffffffffffff1673ffffffffffffffffffffffffffffffffffffffff168152602001908152602001600020548211151515611cbf57600080fd5b611d10826000803373ffffffffffffffffffffffffffffffffffffffff1673ffffffffffffffffffffffffffffffffffffffff168152602001908152602001600020546124c390919063ffffffff16565b6000803373ffffffffffffffffffffffffffffffffffffffff1673ffffffffffffffffffffffffffffffffffffffff16815260200190815260200160002081905550611da3826000808673ffffffffffffffffffffffffffffffffffffffff1673ffffffffffffffffffffffffffffffffffffffff168152602001908152602001600020546124dc90919063ffffffff16565b6000808573ffffffffffffffffffffffffffffffffffffffff1673ffffffffffffffffffffffffffffffffffffffff168152602001908152602001600020819055508273ffffffffffffffffffffffffffffffffffffffff163373ffffffffffffffffffffffffffffffffffffffff167fddf252ad1be2c89b69c2b068fc378daa952ba7f163c4a11628f55a4df523b3ef846040518082815260200191505060405180910390a36001905092915050565b600360009054906101000a900473ffffffffffffffffffffffffffffffffffffffff1673ffffffffffffffffffffffffffffffffffffffff163373ffffffffffffffffffffffffffffffffffffffff16141515611eb057600080fd5b611eba82826124fa565b5050565b600360009054906101000a900473ffffffffffffffffffffffffffffffffffffffff1673ffffffffffffffffffffffffffffffffffffffff163373ffffffffffffffffffffffffffffffffffffffff16141515611f1a57600080fd5b8060048190555050565b60008060008073ffffffffffffffffffffffffffffffffffffffff16600760008673ffffffffffffffffffffffffffffffffffffffff1673ffffffffffffffffffffffffffffffffffffffff16815260200190815260200160002060000160009054906101000a900473ffffffffffffffffffffffffffffffffffffffff1673ffffffffffffffffffffffffffffffffffffffff1614151515611fc657600080fd5b600760008573ffffffffffffffffffffffffffffffffffffffff1673ffffffffffffffffffffffffffffffffffffffff16815260200190815260200160002060000160009054906101000a900473ffffffffffffffffffffffffffffffffffffffff1661203285611a5e565b600760008773ffffffffffffffffffffffffffffffffffffffff1673ffffffffffffffffffffffffffffffffffffffff168152602001908152602001600020600201549250925092509193909250565b600061211382600260003373ffffffffffffffffffffffffffffffffffffffff1673ffffffffffffffffffffffffffffffffffffffff16815260200190815260200160002060008673ffffffffffffffffffffffffffffffffffffffff1673ffffffffffffffffffffffffffffffffffffffff168152602001908152602001600020546124dc90919063ffffffff16565b600260003373ffffffffffffffffffffffffffffffffffffffff1673ffffffffffffffffffffffffffffffffffffffff16815260200190815260200160002060008573ffffffffffffffffffffffffffffffffffffffff1673ffffffffffffffffffffffffffffffffffffffff168152602001908152602001600020819055508273ffffffffffffffffffffffffffffffffffffffff163373ffffffffffffffffffffffffffffffffffffffff167f8c5be1e5ebec7d5bd14f71427d1e84f3dd0314c0f7b2291e5b200ac8c7c3b925600260003373ffffffffffffffffffffffffffffffffffffffff1673ffffffffffffffffffffffffffffffffffffffff16815260200190815260200160002060008773ffffffffffffffffffffffffffffffffffffffff1673ffffffffffffffffffffffffffffffffffffffff168152602001908152602001600020546040518082815260200191505060405180910390a36001905092915050565b6000600260008473ffffffffffffffffffffffffffffffffffffffff1673ffffffffffffffffffffffffffffffffffffffff16815260200190815260200160002060008373ffffffffffffffffffffffffffffffffffffffff1673ffffffffffffffffffffffffffffffffffffffff16815260200190815260200160002054905092915050565b600360009054906101000a900473ffffffffffffffffffffffffffffffffffffffff1673ffffffffffffffffffffffffffffffffffffffff163373ffffffffffffffffffffffffffffffffffffffff1614151561236157600080fd5b8060068190555050565b600360009054906101000a900473ffffffffffffffffffffffffffffffffffffffff1673ffffffffffffffffffffffffffffffffffffffff163373ffffffffffffffffffffffffffffffffffffffff161415156123c757600080fd5b600073ffffffffffffffffffffffffffffffffffffffff168173ffffffffffffffffffffffffffffffffffffffff161415151561240357600080fd5b8073ffffffffffffffffffffffffffffffffffffffff16600360009054906101000a900473ffffffffffffffffffffffffffffffffffffffff1673ffffffffffffffffffffffffffffffffffffffff167f8be0079c531659141344cd1fd0a4f28419497f9722a3daafe3b4186f6b6457e060405160405180910390a380600360006101000a81548173ffffffffffffffffffffffffffffffffffffffff021916908373ffffffffffffffffffffffffffffffffffffffff16021790555050565b60008282111515156124d157fe5b818303905092915050565b60008082840190508381101515156124f057fe5b8091505092915050565b600073ffffffffffffffffffffffffffffffffffffffff16600760008473ffffffffffffffffffffffffffffffffffffffff1673ffffffffffffffffffffffffffffffffffffffff16815260200190815260200160002060000160009054906101000a900473ffffffffffffffffffffffffffffffffffffffff1673ffffffffffffffffffffffffffffffffffffffff161415151561259857600080fd5b6125a282826114bb565b505050565b60008060003373ffffffffffffffffffffffffffffffffffffffff1673ffffffffffffffffffffffffffffffffffffffff1681526020019081526020016000205482111515156125f657600080fd5b33905061264a826000808473ffffffffffffffffffffffffffffffffffffffff1673ffffffffffffffffffffffffffffffffffffffff168152602001908152602001600020546124c390919063ffffffff16565b6000808373ffffffffffffffffffffffffffffffffffffffff1673ffffffffffffffffffffffffffffffffffffffff168152602001908152602001600020819055506126a1826001546124c390919063ffffffff16565b6001819055508073ffffffffffffffffffffffffffffffffffffffff167fcc16f5dbb4873280815c1ee09dbd06736cffcc184412cf7a71a0fdb75d397ca5836040518082815260200191505060405180910390a25050565b6040805190810160405280600073ffffffffffffffffffffffffffffffffffffffff168152602001600081525090565b60606040519081016040528060006fffffffffffffffffffffffffffffffff1916815260200160008019168152602001600073ffffffffffffffffffffffffffffffffffffffff16815250905600a165627a7a7230582082c99bf337f87ad988a050a4f77aa7f9ed98d7c85428394dd516e203ca2b52010029",
  "source": "pragma solidity ^0.4.18;\nimport \"./helpers/CustomMintableToken.sol\";\nimport \"zeppelin-solidity/contracts/token/ERC20/BurnableToken.sol\";\n\ncontract SimpliWaterToken is CustomMintableToken, BurnableToken {\n\n    uint private dailyLimit; //1000 = 1L\n    uint private penaltyChargePerLiter; //1000 = 1R\n    uint private normalChargePerLiter; //1000 = 1R\n    mapping(address => Meter) private registeredMeters;\n    uint private constant ETHERIUM_TO_SWT_EXCHANGE_RATE = 2; // 1 ETH = 2 SWT for the sake of the proof of concept.\n\n    struct Meter {\n        address meterAddress;\n        mapping(address => HouseMember) houseMembers;\n        uint totalHouseMembers;\n    }\n\n    struct HouseMember {\n        bytes16 firstName;\n        bytes32 lastName;\n        address memberAddress;\n    }\n\n    event MeterRegisteredEvent(address _meterAddress);\n    event UserAddedEvent(address _meterAddress, address _memberAddress);\n    \n\n    function SimpliWaterToken() public {\n        totalSupply_ = 0; // New coins will continuously be minted when needed.\n        dailyLimit = 50000;\n        penaltyChargePerLiter = 4000;\n        normalChargePerLiter = 1000;\n    }\n   \n    function registerMeter(address _meterAddress) onlyOwner public {\n        require(registeredMeters[_meterAddress].meterAddress == address(0));\n        var newMeter = Meter({meterAddress: _meterAddress, totalHouseMembers:0});\n        registeredMeters[_meterAddress] = newMeter;\n        MeterRegisteredEvent(_meterAddress);\n    }\n\n    function retrieveMeterHouseTotal(address _meterAddress) view public returns(uint totalHouseMembers) {\n        require(registeredMeters[_meterAddress].meterAddress != address(0));\n        return (registeredMeters[_meterAddress].totalHouseMembers);\n    }\n\n    function retrieveMeterStats(address _meterAddress) view public returns(address meterAddress, uint balance, uint totalHouseMembers) {\n        require(registeredMeters[_meterAddress].meterAddress != address(0));\n        return (registeredMeters[_meterAddress].meterAddress, balanceOf(_meterAddress), registeredMeters[_meterAddress].totalHouseMembers);\n    }\n\n   function addUserToMeter(address _meterAddress, bytes16 _firstName, bytes16 _lastName, address _memberAddress) onlyOwner public {\n        require(registeredMeters[_meterAddress].meterAddress != address(0));\n        require(registeredMeters[_meterAddress].houseMembers[_memberAddress].memberAddress == address(0));        \n        var newMember = HouseMember(_firstName, _lastName, _memberAddress);\n        registeredMeters[_meterAddress].houseMembers[_memberAddress] = newMember;\n        registeredMeters[_meterAddress].totalHouseMembers += 1;\n        UserAddedEvent(_meterAddress, _memberAddress);\n    }\n\n    function setDailyLimit(uint _dailyLimit) onlyOwner public {\n        dailyLimit = _dailyLimit;\n    }\n\n   function getDailyLimit() view public returns(uint _dailyLimit) {\n        return dailyLimit;\n    }\n\n    function setPenaltyChargePerLiter(uint _penaltyCharge) onlyOwner public {\n        penaltyChargePerLiter = _penaltyCharge;\n    }\n\n   function getPenaltyChargePerLiter() view public returns (uint penaltyCharge) {\n        return penaltyChargePerLiter;\n    }\n\n    function setNormalChargePerLiter(uint _normalCharge) onlyOwner public {\n        normalChargePerLiter = _normalCharge;\n    }\n\n    function getNormalChargePerLiter() view public returns(uint _normalCharge) {\n        return normalChargePerLiter;\n    }\n\n    function topUpBalance(address _meterAddress, uint _value) onlyOwner public {\n        topUp(_meterAddress, _value);\n    }\n\n    function topUp(address _meterAddress, uint _value) private {\n        require(registeredMeters[_meterAddress].meterAddress != address(0));\n        mint(_meterAddress, _value);    \n    }\n\n    function burn(uint _tokensToBurn) public {\n        require(registeredMeters[msg.sender].meterAddress != address(0));\n        require(balances[msg.sender] >= _tokensToBurn);\n        super.burn(_tokensToBurn);\n    }\n\n    function topUpBalanceWithEther(address _meterAddress, uint _value) payable public {\n        topUp(_meterAddress, _value);\n    }\n\n\n    function getTokenBalance(address _meterAddress) view public returns(uint) {\n    return balances[_meterAddress];\n    }\n\n    function getEthBalance(address _meterAddress) view public returns(uint) {\n    return _meterAddress.balance;\n    }\n\n   }",
  "sourcePath": "/home/ben/Development/SimpliWater/contracts/SimpliWaterToken.sol",
  "compiler": {
    "name": "solc",
    "version": "0.4.18+commit.9cf6e910.Emscripten.clang"
  },
  "schemaVersion": "1.0.1",
  "updatedAt": "2018-01-30T21:59:42.615Z"
}